:101D200023004733236023610123636105B0F0BDC5
:101D300003AB02AAFFF7C2FF029F019039002800FF
:101D4000FEF78CFD40B90C22A35E9A05EED4032267
:101D500093431E43A681E3E78023A28920601343B7
:101D6000A381039B206167615BB128000E23E15EC4
:101D700000F01EF828B10323A2899A43023B1343C3
:101D8000A381A389019A1343A381CFE7002370B5F0
:101D9000064D0400080011002B60FBF72AF9431CD4
:101DA00002D12B6803B1236070BDC04650280020CB
:101DB000002370B5054D040008002B60FBF71EF9E9
