:10D370005DFB002801DD002010BD012010BDC0466E
:10D3800010B500F00BFB002801DC002010BD0120CF
:10D3900010BDC04610B500F001FB002801DA0020E6
:10D3A00010BD012010BDC0469E2110B5C905041C4A
:10D3B000FFF7F0FF18B9201C00F04CFE10BD9E21B5
:10D3C000201CC90500F0B4FC00F044FE80231B06BD
:10D3D0009C466044F2E7C046002370B50022C4F2C8
:10D3E000E01304000D00FFF79BFF20B92000290087
:10D3F00002F00AFD70BD00230022C4F2E0132000F9
:10D40000290002F069F902F0FFFC80231B069C460C
