:109880008B42E7D10020D8E702204042D5E70120F3
:109890004042D2E78B42E9D0DCE7C04630B5420017
:1098A00044024D02C30F4800640A120E6D0A000EF6
:1098B000C90FFF2A14D0FF2807D0BAB938B925B389
:1098C000002C2CD141B308000FE06DB90AB9002C6F
:1098D000F8D08B4216D0581E02231840013804E0FD
:1098E00014B9FF28F7D19DB1022030BD0028F2D075
:1098F0008B42F0D18242EEDC04DBAC42EBD800209C
:10990000AC42F2D243B11800EFE7002CEDD0E2E711
:1099100000208B42E9D0DEE701204042E5E78B42A0
