:104DE0000B0020002900FAF78FFB32003B00FAF796
:104DF0008BFB02000B0000980199FAF785FB47E650
:104E000040F2FF7CF0B50C034D001E035F00240B45
:104E10006D0D360B7F0D654509D040F2FF71002006
:104E20008F4203D116433000431E9841F0BD044326
:104E30000120002CFAD1F0E7F8B5C046F8BC08BC58
:104E40009E467047F8B5C046F8BC08BC9E46704701
:104E500001B40248844601BC604700BF7D030020C6
:104E600001B40248844601BC604700BF0103002032
:104E700001B40248844601BC604700BF61040020C1
