:10FDF000BEE50126382B00DDE5E580221204144320
:10FE0000CCE5C046FFFF7FFF70B50B00020040F25B
:10FE1000FE350C0382B04900002000920193240BB0
:10FE2000490DDE0FA94205DD40F21D40814203DD90
:10FE30000F4BF01802B070BD80204003204340F209
:10FE40003344641A1F2C09DD40F213435B1AD84077
:10FE500003005842002EEDD11800EBE7054B009A45
:10FE60009C46030061448B40E2401343F1E7C046E7
:10FE7000FFFFFF7FEDFBFFFF70B5C0B1C317C518D3
:10FE80005D40C40F280000F01FF940F21E431B1A0A
