:10852000E5E72000FFF7FEFEE1E7C04600800740D8
:1085300070630040FFFFFEFFFC250020E8250020BF
:1085400003FCFFFFF7B515001C0008AB0600002276
:108550000027DF5F019105B16A1E611C200004F055
:10856000A5F8094BB600F35820005B680199DB19A8
:108570001A786319013B1A702A0004F0D3F84342B9
:108580005841C0B2FEBDC046B426002007B50093D6
:1085900013000A0001000920FFF7D4FF0EBD07B544
:1085A000009313000A0001000120FFF7CBFF0EBD6E
:1085B00007B5009313000A0001000020FFF7C2FF77
