:10CC60007517010000000000B1C9000070B5140084
:10CC70004B1C03D101256D42280070BD93892022F1
:10CC80009343626BA381CEB26368CDB282B1A26BD3
:10CC90009A4207DD2368013B23601E7063680133FD
:10CCA0006360E9E7210000F07CFD0028F2D0E1E7B5
:10CCB0002169226839B1914205D2511E0878A842F3
:10CCC00001D12160EBE72364230044336363032332
:10CCD000A36323004633E2631E7023600123DFE772
:10CCE00010B50C00496B69B123004433994201D05F
:10CCF000FFF760FD0020236C6063636013B1E36B9A
