:10A000001B3290400200501E82410520401AC4407D
:10A010001443E0E764029620640AD3E7FFFFFFFBE6
:10A02000F0B557464E464546DE46E0B583B0009053
:10A0300001910C034E00CF0F610A009C1D03640FB9
:10A040000C43009900920193C80059004B0D9946AA
:10A05000009A019B6D0AD90F530F2B439A46009B20
:10A06000760DDA0094464A46B846B21A8F4200D1BD
:10A07000B3E0002A00DC79E04946002900D1EFE096
:10A0800040F2FF718E4200D19EE10125382A16DC94
:10A090008021534609040B439A461F2A00DDF8E14C
