:106FE000CC500B490E88013E311209012E408919FF
:106FF0008900CC50995C81439954995C403001439D
:10700000995470BD000804409E090020400001070B
:107010009C09002001220D4B0D491A700D4B1B7865
:107020005B181B02D9790A43DA710222D9790A4323
:10703000DA711022D9790A43DA712022D9790A4308
:107040008021DA71DA790A43DA7170471C24002052
:107050003005400026240020014B98787047C04638
:107060001C240020054B1B7823B14120012B03D1A8
:10707000034B00E0034B18787047C046A00900207E
