:10C5800001330131013A0C781C70002CF7D1F3E72C
:10C590005A70F1E730B5050010005AB10024013A95
:10C5A0002B5D085D834204D1A24202D00134002BEE
:10C5B000F6D1181A30BDFFFFF8B5154B05001F68FE
:10C5C0000E007C6CECB9502000F03CF9020078645D
:10C5D00020B95B210F4B104800F0CEF80460446096
:10C5E0008460C4600461446184618462C4620463E1
:10C5F00044638463C463046444648464C4640477EB
:10C600004462310028007A6C012300F007F8F8BD7D
:10C61000100A0020BD160100D4160100F0B5040078
