:10474000BCE7154F154E3B681B69984786420DD054
:104750000022B35E3A680221176A1548154AB84725
:1047600008B10423C5E73000FFF776FF0D4B0E4A72
:104770001B6840F2F4111B6A106898470028B7D1F3
:104780009CE703232B7099E70223FBE7F8BDC046A3
:10479000CA1C0020F61C00200C1D0020F01C00206C
:1047A00015140100001D0020E41C0020FC1C00204A
:1047B000CE130100DC1C0020D01C002020140100BE
:1047C000F0B5584B87B003901878574F574E0328D1
:1047D00010D8574D574C2B681B6904F04FFD022D24
