:1016E0000068019300F0EEF802B008BC03B01847A0
:1016F000440A002070B50B7804005E2B16D000223F
:101700004D1C2100601CFF300A7001318142FBD169
:10171000681E53B101214A402800E2540178451C5B
:101720002D2909D05D291AD021B970BD01224B782D
:101730008D1CE6E70B00EFE746785D2EFAD0B3424A
:10174000F8DC19000230013162548E42FBDC0021CA
:101750005D1CB34201DAF11A01396B18DEE728008B
:10176000E3E70B00F7B54D6B44330C009D421DD1F0
:1017700040F200463100FFF771F810B901204042F5
:10178000FEBD23006063A66346331A7840F2FF3340
:10179000C254230045331A7840F2FE33C2542A78EB
:1017A000013BC254C01820600020E9E78E6B29007D
:1017B00073001A00019300F031F805000028DDD015
:1017C0008719010032003800FEF7A5FF019B276052
:1017D0006563A363E8E7FFFF002370B5054D0400D0
:1017E00008002B60FBF70EFC431C02D12B6803B1F1
:1017F000236070BD50280020C9B28218904201D1E8
:101800000020704703788B42FBD00130F6E70620BA
:1018100010B500F02BFA0120FBF7C8FBF7B5060066
:101820000C00150029B91100FFF718F8040020007A
:10183000FEBD1AB9FEF79EFF0024F8E700F036FA65
:101840000700854202D84308AB42F0D3290030009C
:10185000FFF704F801900028EED02A00BD4200D91D
:101860003A0021000198FEF756FF21003000FEF7F4
:1018700081FF019CDBE7936810B5013B9360002B6F
:1018800004DA9469A34207DB0A2905D01368581CBF
:1018900010601970080010BD00F02AF90100F9E786
:1018A000F8B506000F001400D518AC4201D1002095
:1018B00007E021783A003000FFF7DDFF0134431CD8
:1018C000F3D1F8BDF0B5A1B00D0017001E000390D4
:1018D00018B1036A0BB9FEF7F7FC6B6EDB0705D492
:1018E000AB899B0502D4A86DFEF701FFAB891B07EE
:1018F00001D52B6993B92900039800F037F968B135
:101900006B6EDB0703D50120404221B0F0BDAB89EF
:101910009B05F8D4A86DFEF7EBFEF4E7002308ACB6
:101920006361203363761033A37607963E003378E5
:101930000BB1252B46D1F31B0593BE420BD03A00C9
:1019400029000398FFF7ACFF013000D1AEE06369D6
:10195000059A9B1863613378002B00D1A6E0012221
