:107260001238C5E72C2400209C0900209E0900202C
:10727000262400200070044030054000A0090020B2
:107280003A2400203B240020392400203824002008
:1072900010B50E4B0E4C1A7A0A2A03D1DA780AB9C5
:1072A0009B785BB10B4A23789B1800221B02DA7192
:1072B000094B1A70094B1A70FFF720FF2378054A13
:1072C0009B18B3221B02DA7110BDC0461C2400209B
:1072D0002624002030054000A0090020382400208A
:1072E000034B10B51C780CB1FFF7D2FF200010BD86
:1072F0003824002010B5040018B30378012B21D8DE
