:101820000C00150029B91100FFF718F8040020007A
:10183000FEBD1AB9FEF79EFF0024F8E700F036FA65
:101840000700854202D84308AB42F0D3290030009C
:10185000FFF704F801900028EED02A00BD4200D91D
:101860003A0021000198FEF756FF21003000FEF7F4
:1018700081FF019CDBE7936810B5013B9360002B6F
:1018800004DA9469A34207DB0A2905D01368581CBF
:1018900010601970080010BD00F02AF90100F9E786
:1018A000F8B506000F001400D518AC4201D1002095
:1018B00007E021783A003000FFF7DDFF0134431CD8
