:105BA000040018B9FFF7E4FF200070BD40F2F013C5
:105BB000044A0124D35A1D42F6D0FFF7D9FF02341C
:105BC000F2E7C04600C07E40F8B505000E001400A4
:105BD0000A4F7AB9B8681221FFF7DEFF01280BD10E
:105BE0007B6A002B05DD280022003100FFF7C8FE8C
:105BF0000220F8BDB869EEE70320FAE71824002078
:105C0000F7B5040015001A4E1A4F0191CAB91000D9
:105C1000FFF744FF7571019B84229902164BE0182F
:105C2000FFF712FF3869019B112143431800FFF76A
:105C3000B3FF0400012801D1FFF764FF62B6200022
