:10C6500010B500211820FEF7A1FA10BD10B5002179
:10C660001820FEF79BFA10BD10B500210820FEF738
:10C6700095FA10BD10B500210920FEF7B5FA10BDDE
:10C68000130010B50A0001001920FEF7C3FA5B2160
:10C69000044B9A780A409A709A7845310A439A7006
:10C6A00010BDC04600000740130010B50A0001008D
:10C6B0000920FEF7AFFA5B21044B9A780A409A7082
:10C6C0009A7845310A439A7010BDC0460000074071
:10C6D000130010B50A0001001920FEF79BFA5B2138
:10C6E000044B9A780A409A709A7845310A439A70B6
