:106D6000002070BD0323104AACE702230E4AA9E7B6
:106D7000154A16498018B0FBF3F30B4A13605360B1
:106D80008842A1D9D9079FD5591C11609CE71F21C2
:106D9000013BD3E7187006200AF082F8D8E7C04616
:106DA000FF083D0040420F00F4230020D06605009C
:106DB00000C07E40B86A050068ED220090C07E40A9
:106DC00080841E00C0C62D003F420F003F8AF7019D
:106DD0000B0010B511001A0005F0BDFC10BD03003A
:106DE00051B101394A425141C9020020994206D3AA
:106DF0005A1E9341C018704740F20041F5E7013038
