:106F4000000F000F262400203005400070B504001B
:106F500010B90025280070BD4368002BF9D0144BF0
:106F60001D78002DF5D0FFF7C9FF0028F1D1114B96
:106F70001C60FFF747FF80210F4B104A1B789B18BE
:106F80001B02DA790A43DA714022D9790A43DA71AD
:106F90000722DA705979063A0A435A710822D979D8
:106FA0000A43DA71022259780A435A70D2E7C0467E
:106FB00038240020342400202624002030054000FE
:106FC00070B5040010B90025280070BD4368002B7F
:106FD000F9D0124B1D78002DF5D0FFF78FFF002858
