:1070B00020DA280006F0EEFF08F036FF32003B0031
:1070C00008F00AFB1FE01F006646B7432C2F0FD0C5
:1070D00002AE2DB933540130C0B20132D2B2C9E789
:1070E0000827F61973540A2301315C4389B2F4E787
:1070F0000125F2E7280006F0CDFF08F015FF320069
:107100003B0007F055F807B0F0BDF7B50124037850
:107110002D2B02D164420130F9E72B2BFAD000234A
:1071200002250A260193C25C12B901986043FEBD94
:1071300009B18B42F9D01700AF432C2FF5D0019F36
:10714000303A77430197019F0133D2190192DBB2A4
