:10EEF000450085428041A0464042404402393F18C7
:10EF00000095BFE780245A4624031443240388460F
:10EF1000240BD4E6009C9442E8D30100B5E700221C
:10EF2000FBE6C04601F8FFFFF0B55746DE464E4609
:10EF30004546E0B50D000400E80F8346D80F824631
:10EF400040F2FF700903090B8C461F0369005E0045
:10EF5000490D3F0B760D814217D086420ED001201D
:10EF6000B1420CD1BC450AD1944208D1D3451CD042
:10EF700029B960462043431E984100E00120F0BCBF
:10EF8000BB46B246A946A046F0BD01208E42F6D14E
:10EF9000614639430F0017432743002FEFD15B46EB
:10EFA0005246981A431E9841E9E70020E7E7C04619
:10EFB000F0B557464E46DE46454640F2FF7BE0B58B
:10EFC00004000F034E008046C90F5800400D8C46C8
:10EFD0001903824691463F0B760D090BD80F5E450B
:10EFE0001CD0DA450CD06EBB55463C432DBB0A43C2
:10EFF000002A38D0002C43D1C8B90120404216E085
:10F000001143002939D116B92743002FF4D0844584
:10F0100008D16346002BF0D0604608E0274367BB69
:10F02000B24524D063460220013B18400138F0BCB1
:10F03000BB46B246A946A046F0BD002CE7D1002849
:10F04000F5D1DAE75446002CECD08445EAD1564598
:10F05000E8DCDEDB8F42E5D8DBD1C845E2D8002012
:10F06000C845E4D2D5E70020002CE0D0DAE7114310
:10F0700019B98445D6D10020D9E702204042D6E70D
:10F080008445E7D0CEE7C046F0B557464E464546E4
:10F09000DE46E0B50D0040F2FF7B04008046E80F3D
:10F0A000844658000F03400D49001E0382469146D6
:10F0B0003F0B490D360BD80F59451DD0DA450DD001
:10F0C00039BB51463C43002933D13243002A35D065
:10F0D000002C41D1B8B90120404214E016438EB94A
:10F0E00011B92743002FF5D084451DD06346022077
:10F0F000013B1840013806E027431FB98A45F5D186
:10F100001643FEB10220F0BCBB46B246A946A0465B
:10F11000F0BD5446002CE9D08445E7D15145E5DCEB
:10F1200002DBB742E2D811D06346002BD3D0604651
:10F13000E9E7002CD8D10028E5D1CCE70020002C4D
:10F14000E1D0D3E78445D1D10020DCE7C845CDD854
:10F150000020C845D7D2E7E78445E2D0C6E7C046DD
:10F16000F0B55746DE464E464546E0B51F000B0358
